:020000040800F2
:10000000F00B0020A1010008D92700081D250008D9
:1000100093270008D1020008612F000800000000AB
:10002000000000000000000000000000A1290008FE
:10003000A90700080000000019290008092B000882
:10004000BB010008BB010008BB010008BB010008A0
:10005000BB010008BB010008BB010008BB01000890
:10006000BB010008BB010008BB010008BB01000880
:10007000F9060008BB010008BB010008BB0100082D
:10008000BB010008BB010008BB010008E102000839
:10009000D5020008BB010008BB010008BB01000835
:1000A000BB010008BB010008BB010008BB01000840
:1000B000BD2B0008BB010008BB010008BB01000804
:1000C000BB010008BB010008BB010008BB01000820
:1000D000BB010008BB010008BB010008492F000854
:1000E000BB010008BB010008BB010008BB01000800
:1000F000BB010008BB010008BB010008BB010008F0
:10010000BB010008BB010008BB010008BB010008DF
:10011000BB010008BB010008BB010008BB010008CF
:10012000BB010008BB010008BB010008BB010008BF
:10013000BB0100080000000000000000F9020008F8
:10014000ED020008BB010008BB010008BB0100086C
:10015000BB010008BB010008BB010008BB0100088F
:10016000BB010008BB010008BB010008BB0100087F
:10017000BB010008BB0100080000000000000000F7
:10018000BB010008BB010008DFF810D000F08EF8BA
:1001900000480047A1300008AFF30080F00B0020BA
:1001A0000648804706480047FEE7FEE7FEE7FEE711
:1001B000FEE7FEE7FEE7FEE7FEE7FEE7A12B00080D
:1001C000890100082DE9F05F0546002092469B4614
:1001D00088460646814640241BE02846414647465D
:1001E000224600F053F853465A46C01A914110D3A4
:1001F00011461846224600F03AF82D1A67EB01081E
:100200004F4622460120002100F031F817EB00098B
:100210004E41201EA4F10104DFDC484631462A4647
:100220004346BDE8F09F40EA01039B0703D009E085
:1002300008C9121F08C0042AFAD203E011F8013BD2
:1002400000F8013B521EF9D27047D2B201E000F82B
:10025000012B491EFBD270470022F6E710B513466A
:100260000A4604461946FFF7F0FF204610BD202A33
:1002700004DB203A00FA02F1002070479140C2F1FD
:10028000200320FA03F3194390407047202A04DB2F
:10029000203A21FA02F00021704721FA02F3D040FF
:1002A000C2F120029140084319467047064C074DA1
:1002B00006E0E06840F0010394E807009847103436
:1002C000AC42F6D3FFF764FF7032000890320008AA
:1002D000FEE70000014800F0CEBC00007C000020DA
:1002E000014800F0C8BC00007C000020014800F07C
:1002F000C2BC0000A4000020014800F0BCBC00000B
:10030000A40000202DE9F0410025224E224FA846EE
:1003100005EB450006EBC000017A032930D0C5EBA0
:10032000C50101EB410107EBC104D4F8A01021B3D2
:1003300001F6B761B1F5C0410ED0A1F5E061073912
:1003400020D0062919D194ED040ADFED140A45F6F0
:10035000560220EE200A19E0B0F9100045F24912C9
:1003600000EE100AB8EEC00A0D48D4F8A41010EE42
:10037000103A00F075F8C4F8A0806D1C042DC7DB9E
:10038000BDE8F08194ED100A45F65002BDEEC00ABA
:10039000EAE70000FC060020AC01002000007A44DF
:1003A000A400002000B58BB000200121CDE906019A
:1003B0000891009001900290039005900490694686
:1003C0000C4800F047FB0B4800F0E4FF022109480D
:1003D00000F0C0FA0E20099005906946064800F02A
:1003E00039FB054800F0D6FF0221034800F0B2FABD
:1003F0000BB000BD7C000020A400002030B5D1E986
:100400000023D41A144B9C600A684A60D0F89420E8
:1004100002EBD275B4EB650F01DDA41A9C606C1081
:1004200065429C68A54201DD22449A6093ED020A70
:10043000D0ED100AB8EEC00A30EE800ADFED070AF0
:1004400080ED100A91ED030AB8EEC00A20EE200AF2
:1004500080ED040A30BD00004000002063CF0B3E59
:100460001FB58AB0044601F5207104200091CDE942
:1004700001100020039008200490002106A80CAA77
:10048000535C4354491C0829FADB204600F0DDFB8D
:100490000028FAD008AB06AA6946204600F06CFA9C
:1004A0000EB010BD70B5114E00242DED028B45F637
:1004B00056059FED0F8AC4EBC40000EB400006EB2D
:1004C000C0002A4690ED040AD0F8A410094820EE96
:1004D000080ABDEEC00A10EE103AFFF7C1FF641C17
:1004E000042CE8DBBDEC028B70BD0000AC010020E9
:1004F00000007A44A400002010B58AB0044602919E
:10050000002108200491CDE9051010788DF8000035
:1005100050788DF8010090788DF80200D0788DF831
:10052000030010798DF8040050798DF8050090795A
:100530008DF80600D0798DF80700204600F085FB85
:100540000028FAD008AB6A4602A9204600F014FA47
:100550000AB010BD10B58AB00446029100210820EF
:100560000491CDE9051010788DF8000090788DF891
:10057000010010798DF8020090798DF80300107A4F
:100580008DF80400907A8DF80500107B8DF8060038
:10059000907B8DF80700204600F057FB0028FAD02A
:1005A00008AB6A4602A9204600F0E6F90AB010BD81
:1005B000044800780D2804D1034890ED010A00F0AA
:1005C000F5B87047D80700205C00002070B5424D98
:1005D000424E434B0024DFED432A00BF04EB4400AE
:1005E00006EBC000007A032831D06868401C6860C0
:1005F000C4EBC40000EB400003EBC002117A0129F8
:1006000002D0C2ED032A1FE053F8300002280DD0BB
:10061000052802D0062817D13AE002F1400002F086
:100620007DF992ED190A82ED050A02E02868401C66
:10063000286002F11000014602F0B9FC084602F001
:1006400090FC00BF82ED030A641C082CC6DB28491D
:10065000DFED250A9FED250A0020B3EE041AF2EE25
:10066000041A00BF00EB400206EBC202127A012A14
:1006700014D0022A1FD001EB8002C2ED002A401CD8
:100680000428EFDBBDE8704019491A4802F08AB926
:10069000104601F04BFF92ED1E0AD3E7C0EBC002FB
:1006A00002EB420203EBC20292ED032A22EE202A61
:1006B00082EE013A0BE0C0EBC00202EB420203EB18
:1006C000C20292ED032A22EE002A82EE213A01EBC9
:1006D000800282ED003AD2E740000020FC060020B4
:1006E000AC010020000000000000804600401C46D5
:1006F000EC0600207C000020014800F091BE0000C4
:100700004C01002001681823CAB2103AB2FBF3F280
:10071000054B6FF30901032A9B5CC36500D9091DD2
:1007200081650846704700000032000810B5014698
:1007300000208B698A6A4FF0C07453B1B3F5005F33
:1007400015D072B1012A0CD0022A0AD0032A09D18D
:1007500004E01AB1012A06D0022A03D1C96AC901EC
:1007600000D5012010BDC96AA142FAD010BD002AEF
:10077000F7D0012AF2D0022AF3D0032AF3D010BD19
:1007800030B50468256825F4802525600468636019
:100790008368402B036803D099600068C26030BD55
:1007A0009A600068C16030BD704700001CB50B48FE
:1007B0006A460168491C016010EE100A8DF80000BD
:1007C000010A8DF80110010C8DF80210000E8DF851
:1007D0000300D1210248FFF78FFE1CBD5C00002002
:1007E0007C000020002141728172C172017300F10E
:1007F000090211210148FFF77FBE00007C000020A4
:10080000F0B53E4901240220C1F8A440C1F84C01D2
:100810000320C1F8F40104200022C702384DDFEDA7
:10082000391ADFED390ADFED392A9FED390A9FEDDC
:10083000391A0526C1F89C02C2EBC20000EB400346
:1008400001EBC30002EB420C047205EBCC0CC0F8C8
:1008500094709CF808C0BCF1010F2BD0BCF1020FC2
:1008600027D141F83360C0ED0B1AC0ED0C0AB2EE8F
:10087000042A80ED0F2A9FED282A80ED072A9FED9C
:10088000272A80ED182A80ED172AC0ED1B2A80ED5B
:10089000090A80ED0A0AC0ED050A9FED212A80EDC4
:1008A000150A00BF80ED142A521C80ED1A1A082A7E
:1008B000C2DBF0BD41F833609FED1A2AC0ED0B1A80
:1008C00080ED0C2AB3EE042A80ED0F2A9FED162A44
:1008D00080ED072A9FED152AC0ED180A80ED172A32
:1008E000C0ED1B2A80ED090A80ED0A0AC0ED050A59
:1008F00080ED150A9FED0E2AD4E70000AC01002020
:10090000FC060020CDCCCC3D00000000CDCC4C3FFF
:1009100000007A44000020C3000016451B2FDD3C78
:100920000000FA446F12833A0000A044AE47E13D54
:100930000000484272B6FEE701B55FF000012DED00
:10094000020B6A46491C12F8013B20F8023B0429BD
:10095000F8D30EBD90F82020012A07D0022A05D036
:10096000416A41F480214162012070470068426978
:100970000A43426100207047F0B590F820500468A7
:10098000A468012D05D0022D03D0416A41F48021D5
:100990005DE014F0406F01D1E50055D5C4F301646A
:1009A000022C03D9416A41F4000150E00125A54021
:1009B0001D608D684FF4C0739DB1CE6835434E689D
:1009C00045EAC605066803EB0417F5514FF4C275F6
:1009D000076805EB04150E697E51097D012905D0D4
:1009E00009E00E88CD6845EA4655EBE701684E59A7
:1009F00046F480764E511179D579567941EA0561F0
:100A000095792D0445EA062529434FF4C6760568F5
:100A100006EB0416A9511178D57841EA056195785D
:100A200052782D0445EA022211434FF4C47502683E
:100A300005EB04155151006803EB0411425842F0D4
:100A4000010242500020F0BD416A41F400114162B0
:100A50000120F0BD10B590F82020012A07D0022A0D
:100A600005D0416A41F480214162012010BD3B481C
:100A7000D0F8002242F00102C0F80022D0F8002293
:100A800022F47C52C0F80022D0F800224B6A42EADD
:100A90000322C0F800220A7D02F01F0301229A40BF
:100AA000D0F81C329343C0F81C32CB69B3B9D0F8EC
:100AB0000C329343C0F80C328C894B6864F31F43AB
:100AC0004C6900EBC404C4F840320C890B6864F331
:100AD0001F434C6900EBC404C4F84432CB69012BBA
:100AE00016D1D0F80C321343C0F80C320C884B6886
:100AF00064F31F434C6900EBC404C4F840320C8912
:100B0000CB6864F31F434C6900EBC404C4F844325F
:100B10008B69002BD0F804320ED01343C0F8043296
:100B20000B69002BD0F8143208D01343C0F81432EC
:100B3000096A012904D008E09343EFE79343F5E7FE
:100B4000D0F81C121143C0F81C12D0F8001221F08A
:100B50000101C0F80012002010BD00000064004038
:100B6000704730B590F82040012C05D0022C03D0FE
:100B7000416A41F480215DE00468002955D0246970
:100B8000A40754D04FF4D874056804EB01142D5910
:100B900015F00405956005682D594ED0ED08556097
:100BA00005682C5904F00204D4604FF4DA74056827
:100BB00004EB01142D5905F00F05156105682D5939
:100BC000C5F30725956105682C59240C54614FF431
:100BD000DC72046802EB0112A4581C700468A4586B
:100BE000240A5C700468A458240C9C700468A25801
:100BF000120EDA704FF4DE72046802EB0112A45890
:100C00001C710468A458240A5C710468A458240C5C
:100C10009C710468A258120EDA71006881B10169F2
:100C200041F020010161002030BDE468A8E7416A7D
:100C300041F400114162012030BD6D0D1560AFE738
:100C4000C16841F02001C160EDE70246002092F842
:100C50002010012901D002290CD111688A685201A3
:100C600000D501208A68120100D5401C8968C9009E
:100C700000D5401C70472DE9F05F05460068002450
:100C80004669D0F804908768D0F80CB0D0F810A06E
:100C9000D0F81880F10748D0F90714D001218160FD
:100CA000B80703D5284600F0A2FB0CE0780702D570
:100CB0004FF4006407E0380702D54FF4805402E097
:100CC000284600F093FBF80516D529684FF480708C
:100CD0008860B80503D5284600F08BFB0CE078054A
:100CE00002D544F4005407E0380502D544F48044AA
:100CF00002E0284600F07CFBF80316D529684FF483
:100D000080308860B80303D5284600F074FB0CE0FF
:100D1000780302D544F4004407E0380302D544F4D4
:100D2000803402E0284600F065FB300707D55FEA13
:100D3000CB6004D52968102044F40074C8607007A3
:100D40004FF0080707D55FEA0B7004D52868C76025
:100D5000284600F0ADF9B00706D52868C0688007BE
:100D600002D0284600F0A6F9700607D55FEACA60EF
:100D700004D52968102044F480640861B00607D5C2
:100D80005FEA0A7004D528680761284600F0FEFA79
:100D9000F00606D528680069800702D0284600F0D2
:100DA000F6FAB00308D55FEAC96005D529681020B6
:100DB0004860284600F0ECFAF00307D55FEA0970B6
:100DC00004D528684760284600F016FB300446D555
:100DD0005FEA497040D5F00504D55FEAC87001D0DC
:100DE00044F00104B00504D55FEA887001D544F0F1
:100DF0000204700504D55FEA487001D544F004048C
:100E0000300529D518F0700F26D008F07000402862
:100E100015D006DC102809D020280AD0302816D199
:100E20000AE050280ED0602811D10EE044F00804EA
:100E30000DE044F010040AE044F0200407E044F020
:100E4000400404E044F0800401E044F48074286825
:100E5000816921F070018161296804204860002CBB
:100E600005D0686A204368622846FFF779FEBDE82E
:100E7000F09F70B5040003D094F8200010B104E096
:100E8000012070BD204600F081F82068016821F043
:100E90000201016000F01CFD0546052604E000F09B
:100EA00017FD401B0A2811D8206840688007F6D437
:100EB0002068016841F00101016000F009FD05466C
:100EC0000BE000F005FD401B0A2806D9606A40F4DB
:100ED0000030606284F82060D2E720684068C00774
:100EE000EFD0207E0128206801683DD021F08001EC
:100EF0000160607E01282068016838D021F040013F
:100F00000160A07E01282068016833D021F0200113
:100F10000160E07E0128206801682ED041F01001B8
:100F20000160207F01282068016829D021F0080194
:100F30000160607F01282068016824D021F004014D
:100F40000160D4E902010843D4E9041211430843C3
:100F50006168491E08432168C86100206062012061
:100F600084F82000002070BD41F08001C0E741F00E
:100F70004001C5E741F02001CAE721F01001CFE7A9
:100F800041F00801D4E741F00401D9E72DE9F0432D
:100F900087B0044614216846FFF75EF9404B41488C
:100FA000DFF8F8801968D4F800C03E4A022503260D
:100FB0000927DFF8F49010300024491CC4452CD1D7
:100FC0001960012907D1016841F0007101600068D2
:100FD00000F000700590106840F00200106010688A
:100FE00002AB00F0020005904FF44070CDE900051F
:100FF00083E8D0006946484600F082FB0022114693
:10100000132000F0D3FC132000F0C2FC0022114694
:10101000142000F0CBFC14203AE0DFF89080C445A7
:1010200038D1D0F800C04CF0806CC0F800C0D0F8C7
:1010300000C001290CF0806CCDF814C0196007D1F4
:10104000016841F000710160006800F000700590D7
:10105000106840F002001060106802AB00F002005F
:1010600005906020CDE9000583E8D0006946484638
:1010700000F046FB002211463F2000F097FC3F2085
:1010800000F086FC00221146402000F08FFC40203A
:1010900000F07EFC07B0BDE8F08300000064004073
:1010A0000800002030380240000402400068004080
:1010B000704700002DE9F0430446AA4889B0AA4EC3
:1010C000DFF8A882AA4D07AF844260D13B466A464A
:1010D00000212046FFF745FD002105F114007A5C50
:1010E0004254491CC9B20829F9D30099A1F50072EC
:1010F000013A19D0A1F50072023A15D0A1F500729B
:10110000033A11D0B1F5017F0ED0A1F50072053A76
:101110000AD0A1F50072063A06D0A1F50072073A8E
:1011200002D0B1F5027F2CD1491ECAB241780378B2
:1011300001EB032302EB420146F8313006EBC1011B
:10114000D1F814C0BCF1320F03DA4B600CF101038B
:101150004B6190F802C0C3784FEA0C2C03FA8CF371
:10116000CB6090F805C003790CEB03230B828079E8
:101170008874C2EBC20000EB400208EBC200FFF72C
:101180003DF996ED000AB8EEC00A85ED040A7948EB
:10119000844217D107AB6A4600212046FFF7E1FCE5
:1011A000734C00201C34395C2154401CC0B2082808
:1011B000F9D3B4F9020030B1012862D0032872D00B
:1011C000022871D0C2E0002707EB470006EBC00001
:1011D000007A002854D0C7EBC70000EB400208EBB0
:1011E000C2090099D9F8A40000F54070814244D1A9
:1011F000B4F9001045F24912881A914235D006DC44
:1012000002290BD003291AD0042936D122E0A0F5F7
:10121000E06007382DD006282FD128E094ED010A90
:10122000F8EEC00A9FED541A80EE810A89ED050A96
:10123000D9ED070A01F09CFA89ED050A1DE094ED4D
:10124000010AF8EEC00AB8EEC00AC9ED110A85ED30
:10125000040A12E094ED010AD9ED100AB8EEC00AB2
:1012600030EE800A89ED110A07E0444903E0444961
:1012700001E04349891FC9F8A0107F1C082FA3DB98
:1012800064E00098A0F5806101395FD1B4F90000F5
:1012900008285BD2DFE800F05A04090C0F12171E71
:1012A00001F0BCFA52E01CE034E001F0A7FA4DE096
:1012B00001F094FA4AE001F0C1FA47E0217960793F
:1012C00001F0CCFA42E094ED010AB8EEC00A01F058
:1012D00015FB3BE094ED010AB8EEC00A01F000FBFB
:1012E00034E00098A0F5A06101392FD1A868401C16
:1012F000A8602088012829D168682249401C6860BC
:101300000D20087094ED010A1F48B8EEC00A80ED68
:10131000000A1BE05FF00105009905F5A06081421D
:1013200011D1B4F9000001280DD002280BD194EDA1
:10133000010AE8B20221B8EEC00ABDEEC00A10EE02
:10134000102A01F07BFB6D1C042DE5DB0221054812
:10135000FFF700FB02210748FFF7FCFA09B0BDE8E0
:10136000F08300007C000020FC060020AC0100207F
:101370000C000020A400002000007A4449510040E5
:1013800056580040D8070020600000207047704782
:101390007047000070B5044690F82000012804D082
:1013A000606A40F40020606218E0022084F82000A7
:1013B0002068016821F00101016000F089FA05460A
:1013C0000EE000BF00F084FA401B0A2808D9606ACA
:1013D00040F400306062052084F82000012070BDD8
:1013E00020684068C007EDD1606270BD70477047EB
:1013F0007047704770477047704790F83510022962
:1014000003D08021416501207047052180F8351007
:101410000068016821F001010160002070470000B0
:101420002DE9F84304464FF00009CDF800906348D9
:101430004FF41651A56D0068B0FBF1F72E6894F8D3
:101440005C10082000FA01F131420FD021680A68CF
:1014500052070BD50A6822F004020A6094F85C1067
:101460008840A860606D40F00100606594F85C10F1
:101470004FF0010808FA01F0304208D021684969AC
:10148000090604D5A860606D40F00200606594F81C
:101490005C1004208840304208D021680968890720
:1014A00004D5A860606D40F00400606594F85C109D
:1014B00010208840304218D021680968090714D5E7
:1014C000A86020680168490304D50068000308D5B6
:1014D000A16C07E00168C90503D4016821F0080187
:1014E0000160216C09B12046884794F85C102020E7
:1014F0008840304231D021680968C9062DD5A860DE
:1015000094F8350005282068016806D0490347D5BE
:10151000006800031DD4616C1CE021F0160101601D
:101520002068416921F080014161206C08B9A06CFC
:1015300020B12068016821F00801016094F85C1076
:101540003F208840A86084F8349084F83580216D6D
:101550001FE0E16B09B120468847606D00282BD061
:10156000606DC00714D0052084F83500206801683C
:1015700021F0010101600098401C0090B84203D89E
:1015800020680068C007F6D184F8349084F835806C
:10159000E16C002910D001B02046BDE8F0430847B7
:1015A0000168C905D5D4016821F01001016084F8F3
:1015B000349084F83580CCE7BDE8F8833C00002007
:1015C0002DE9F041044600F083F906465CB10025A0
:1015D00084F83450022084F835002068016821F036
:1015E000010101600DE00120BDE8F08100F070F91B
:1015F000801B052805D920206065032084F835006C
:10160000F2E720680068C007F0D12268116820481E
:101610000140D4E901031843D4E9033633431843A6
:1016200063691843A3691843E3691843236A18439D
:101630000843616A042903D1D4E90B131943084311
:10164000106020684069666A20F0070130460E434A
:10165000012704280CD1A06A0643E06A40B1204665
:10166000FFF764F820B14020606584F83570BAE770
:10167000206846612046FFF745F894F85C203F213A
:1016800091408160656584F835700020ACE700000A
:101690003F8010F070B5044690F834000025012812
:1016A0000CD0012084F8340094F835600020012E1D
:1016B00006D084F834000225284670BD022070BD93
:1016C000022684F8356060652046FFF759F82068E7
:1016D000016841F001010160EEE7000070B50446C9
:1016E00000F0F6F80546601C02D004480078044477
:1016F00000F0EEF8401BA042FAD370BD300000208D
:101700002DE9F84F00224FF0010803254FF00F0E8E
:101710000B6808FA02F42340A3426ED14E68012EF2
:1017200005D0022E03D0112E01D0122E12D18668C0
:101730004FEA420C05FA0CF7BE43CF6807FA0CF7E4
:10174000374387604668A6430C79C4F3001494407D
:1017500034434460C668570005FA07FC8C6826EAE3
:101760000C06BC403443C4604C68022C01D0122CDF
:1017700013D1D40800EB8404A346D4F82090540776
:101780004FEAD46A0EFA0AF629EA06090E6906FA41
:101790000AF646EA0906CBF8206006680C7926EAC4
:1017A0000C0604F00304BC40344304604C68E400BD
:1017B00065D5364C266846F480462660246822F0BB
:1017C000030604F480440094314C3444A446D4F815
:1017D00008489607370F0EFA07F6B4432D4EB0426D
:1017E00001D1002624E02C4EB04201D101261FE099
:1017F0002A4EB04202D102261AE040E0284EB04202
:1018000001D1032614E0274EB04201D104260FE097
:10181000254EB04201D105260AE0244EB04201D146
:10182000062605E0224EB04201D1072600E0082638
:10183000BE402643CCF808681E4E34684F689C436F
:10184000FF0300D51C4334601A4C241D26684F68E2
:101850009E43BF0300D51E432660164E08363468EB
:101860004F689C43FF0200D51C433460114E0C3678
:1018700034684F689C43BF0200D51C433460521C3F
:10188000102AFFF445AFBDE8F88F0000443802404D
:101890000030014000000240000402400008024005
:1018A000000C0240001002400014024000180240E8
:1018B000001C0240003C0140426931EA020200D1B2
:1018C0000904816170470AB1816170470904FBE72F
:1018D000014880687047000030000020024881689D
:1018E0000278114481607047300000200B4810B529
:1018F000016841F400710160016841F48061016098
:10190000016841F480710160032000F06FF800204D
:1019100000F006F800F024F8002010BD003C024062
:1019200070B50D4D04464FF47A712878B1FBF0F094
:101930000A490968B1FBF0F000F002FB48B9102C2D
:1019400007D200222146501E00F030F800206C60C3
:1019500070BD012070BD0000300000203C00002060
:101960000A4808B5016841F480410160006800F44C
:10197000804000900548001F016841F080510160DF
:10198000006800F08050009008BD0000443802401C
:10199000002809DB00F01F0201219140400980006E
:1019A00000F1E020C0F8001170470000F0B40E4BC9
:1019B0001B680C46C3F30223C3F10705042D00D9AD
:1019C0000425191D072901D2002300E0DB1E012692
:1019D00006FA05F1491E214099409E40761E1640A8
:1019E0003143F0BC01F006BB0CED00E0064900F00D
:1019F000070208684FF6FF03184040EA0220034A36
:101A000010430860704700000CED00E00000FA058C
:101A10002DE9F0470E46050065D0DFF81481D8F8AF
:101A20000000F7B200F00F00B04207D288F8007053
:101A3000D8F8000000F00F00B04254D128683D4CA7
:101A4000810712D5400703D5206840F4E05020609C
:101A50002878000703D5206840F4604020602068A3
:101A6000A96820F0F000084320602878C0072DD036
:101A7000304968680839012812D0022813D0032899
:101A800011D00968890700292DDA216821F00301A6
:101A900001432160FFF71CFF814641F2883A0EE0C6
:101AA00009688903EFE709688901ECE7FFF710FF90
:101AB000A0EB0901514502D90320BDE8F087206859
:101AC000696800F00C00B0EB810FEFD1D8F800107E
:101AD000404601F00F01B14207D90770006800F0DD
:101AE0000F00B04201D00120E7E72878400705D574
:101AF0002068E96820F4E050084320602878000757
:101B000006D52068296920F4604040EAC1002060C1
:101B100000F038F82168084AC1F30311515CC8404D
:101B20000649086006480068FFF7FAFE0020C4E78F
:101B3000003C024008380240083200083C00002007
:101B4000340000200448054900680968044AC1F3CC
:101B50008221515CC84070473C0000200838024098
:101B6000183200080448054900680968044AC1F3AE
:101B70004231515CC84070473C00002008380240A8
:101B800018320008154810B5006810F00C0214480F
:101B900013D04110042A0FD0082A0ED10F4C241F55
:101BA0002268236802F03F025B0207D52068C0F379
:101BB0008810A0FB010106E0084610BD2168C1F3B2
:101BC0008811A1FB00010023FEF7FCFA2168C1F394
:101BD0000141491C4900B0FBF1F010BD083802403A
:101BE0000024F4002DE9F84F04006ED02078DFF8CF
:101BF0003C93C007A9F104054AD009F1040001682B
:101C0000C1F38101012908D00068C0F381000228D6
:101C10000AD1D9F80000400206D52868800337D5DC
:101C200060680028E1D033E06068B0F5803F10D0F4
:101C3000B0F5A02F286810D020F4803028602868E4
:101C400020F4802028606068A8B1FFF741FE0646B6
:101C50000DE0286840F48030F4E740F480202860EC
:101C6000F7E700BFFFF734FE801B642873D82868AD
:101C70008003F7D50CE0FFF72BFE064605E000BF1A
:101C8000FFF726FE801B6428F0D828688003F7D46D
:101C90002078DFF89C8280074FF0000A3ED5A348E9
:101CA000001D016811F00C0F08D00068C0F381001E
:101CB00002280BD1D9F80000400207D42868800719
:101CC00016D5E068012800D112E02BE1E068B8B138
:101CD0000120C8F80000FFF7FBFD064605E000BF45
:101CE000FFF7F6FD801B0228C0D828688007F7D5CB
:101CF0002868216920F0F80040EAC10028600DE062
:101D0000C8F800A0FFF7E4FD064604E0FFF7E0FD99
:101D1000801B02281FD828688007F7D42078000786
:101D200022D5824E83486169703671B1012101600C
:101D3000FFF7CEFD074604E0FFF7CAFDC01B0228EF
:101D400009D830688007F7D50EE0C0F800A0FFF78B
:101D5000BFFD074605E082E0FFF7BAFDC01B022881
:101D60007DD830688007F7D42078400768D5DFF841
:101D7000BCB100270BF13C0BDBF80000C0000BD41A
:101D8000DBF8001041F08051CBF80010DBF80000C8
:101D9000012700F080500090674E3068C00510D4D5
:101DA000306840F480703060FFF792FD009005E0ED
:101DB000FFF78EFD0099401A022850D83068C00500
:101DC000F6D55A4EA0686C3601280FD00528306829
:101DD00010D020F001003060306820F00400306046
:101DE000A068B8B1FFF774FD00900FE0306840F0D4
:101DF0000100F4E740F004003060F7E7FFF768FD0A
:101E00000099411A41F28830814266D830688007D3
:101E1000F4D50EE0FFF75CFD009007E0FFF758FDFA
:101E20000099411A41F28830814256D830688007C3
:101E3000F4D42FB1DBF8001021F08051CBF8001062
:101E4000A069C8B33949091D0968C1F38101022994
:101E50004AD00228504607D0C8F8600000E03CE0B5
:101E6000FFF736FD04463BE04746C8F86000FFF741
:101E70002FFD064605E000BFFFF72AFD801B022864
:101E80002BD828688001F7D4D4E907010843A16A58
:101E90002A4A490802EB0141626A41EA8211084379
:101EA00094F82C1040EA0161C9F80010012038664E
:101EB000FFF70EFD044606E036E000BFFFF708FD21
:101EC000001B022809D828688001F7D52CE000BF44
:101ED000FFF7FEFC001B022802D90320BDE8F88FA3
:101EE00028688001F4D41FE00128F7D0D9F8000059
:101EF000E26900F48001914214D1226A00F03F01AE
:101F000091420FD147F6C071626A0140914209D1F6
:101F1000A26A00F44031914204D1E16A00F070609D
:101F2000884201D00120D9E70020D7E704380240D9
:101F300000004742800E4742007000400000FFFF53
:101F400010B5401EB0F1807F01D3012010BD4FF0CD
:101F5000E02460610F21601701F04CF80020A061BF
:101F600007202061002010BD7047704770B590F8C1
:101F70003C20012A32D0012480F83C40022280F823
:101F80003D2003685A689D6822F070060A68324353
:101F90005A60134B02689A4214D0B2F1804F11D0AC
:101FA000104B9A420ED0104B9A420BD00F4B9A42D4
:101FB00008D00F4B9A4205D00E4B9A4202D00E4BDE
:101FC0009A4204D1496825F080031943916080F852
:101FD0003D40002180F83C10084670BD022070BDD5
:101FE000000001400004004000080040000C0040D8
:101FF00000040140004001400018004010B50400FA
:1020000003D094F83D0010B107E0012010BD00207E
:1020100084F83C00204600F00DF8022084F83D00D2
:10202000211D206800F0D0FD012084F83D00002033
:1020300010BD000008B50068B0F1804F12D10A4809
:10204000016841F0010101600068002200F0010018
:10205000009011461C20FFF7A9FCBDE808401C2099
:10206000FFF796BC08BD0000403802400168CA680E
:1020700042F00102CA600068816801F00701062988
:1020800003D0016841F0010101600020704770B584
:10209000044690F83C00012817D0012584F83C50F4
:1020A000022084F83D002068826822F0770222F442
:1020B0007F4282600868502830D00DDC20284DD047
:1020C00005DC98B310283BD148E0022070BD3028D1
:1020D00044D0402834D139E0602828D0702806D078
:1020E000B0F5805F2CD0B0F5005F29D10AE0CB6855
:1020F000D1E90121206800F0CBFD2068816841F022
:10210000770109E0CB68D1E90121206800F0C0FD2A
:102110002068816841F48041816011E0CA684968A3
:10212000206800F0C7FD5021206807E016E0CA686B
:102130004968206800F0CFFD6021206800F0B2FD02
:1021400084F83D50002084F83C0070BDCA6849689E
:10215000206800F0AFFD40212068EFE722680146CB
:102160001046EBE7704770B50446006801694FF010
:102170000005C943890715D4C168C943890711D42B
:10218000E91E0161012020772068806980072046D0
:1021900002D0FFF7E7FF04E000F098F8204600F0D7
:1021A00096F8257720680169C943490717D4C168A3
:1021B000C943490713D46FF004010161022020775D
:1021C0002068806910F4407F204602D0FFF7CAFFE4
:1021D00004E000F07BF8204600F079F825772068CD
:1021E0000169C943090716D4C168C943090712D454
:1021F0006FF008010161042020772068C069800722
:10220000204602D0FFF7AEFF04E000F05FF8204662
:1022100000F05DF8257720680169C943C90617D425
:10222000C168C943C90613D46FF0100101610820C9
:1022300020772068C06910F4407F204602D0FFF765
:1022400091FF04E000F042F8204600F040F82577C6
:1022500020680169C943C90708D1C168C943C907D2
:1022600004D1891E0161204600F032F8206801691E
:10227000C943090609D4C168C943090605D46FF0EA
:10228000800101612046FFF76FFE20680169C943A4
:10229000490609D4C168C943490605D46FF0400115
:1022A0000161204600F022F820680169C9438906CF
:1022B0000BD4C168C943890607D46FF020010161BE
:1022C0002046BDE87040FFF750BE70BD70477047B4
:1022D000054810B5C168491CC160FEF769F9BDE841
:1022E0001040FEF773B900000C00002070477047E3
:1022F00070B5026804461068D168536910F00F0F7A
:1023000052D003F0010501F490762E435FD0C2074E
:1023100005D0CA0503D5E26B42F00102E263420731
:1023200005D5DA0703D0E26B42F00202E2638207CE
:1023300005D5DA0703D0E26B42F00402E26302073C
:1023400007D501F020022A4303D0E26B42F00802D5
:10235000E263E26B002A33D0800604D5880602D5FA
:10236000204600F0E0FC20684069E16BC0F380107B
:10237000090700D428B3204600F0C7FC2068416953
:1023800049061AD5416921F040014161606BA0B155
:102390001B490165606BFFF730F8002810D0606BB7
:1023A000016DBDE870400847830610D58B060ED539
:1023B0002046BDE8704000F0B6BC2046FFF797FF0E
:1023C00070BD2046FFF793FF0020E06370BD030659
:1023D00006D50B0604D52046BDE8704000F082BD4E
:1023E0004006F3D54806F1D5D168204621F04001DA
:1023F000D160202184F8391000F08FF870BD000002
:10240000FB2C000870B5040004D094F839000025B6
:1024100010B106E0012070BD84F83850204600F06D
:1024200023F8242084F839002068C16821F4005181
:10243000C160204600F0C2FC2068016921F490418F
:1024400001612068416921F02A0141612068C16869
:1024500041F40051C160E563202084F8390084F81C
:102460003A00002070BD000070B586B00646142109
:102470006846FDF7F1FE23493068884240D1224882
:102480000025016841F480210160006800F480208B
:1024900005901D481038016841F004010160006892
:1024A000694600F0040005904FF44060009002205F
:1024B000CDE9010503200390072004901348FFF79E
:1024C0001FF9144C124820604FF00060C4E9010568
:1024D0004014C4E903506561A561E56125622046A9
:1024E0006562FFF76DF808B1FEF724FA7463002205
:1024F00011462720A663FFF759FA2720FFF748FA6D
:1025000006B070BD0048004040380240000802405C
:10251000286002404C010020704770470248016863
:10252000491C0160FCE700000C00002000B590EDA4
:102530001A0A014680ED060A103000F012FDD1EDB6
:102540001B0A00F015F981ED1E0A91ED040AB0EEA8
:10255000C00A10EE100AB0F1804F1CDC486F401C1E
:102560004867B0F5FA7F15DB05209FED0C0ADFED1B
:102570000C0A81ED100AC1ED110A81ED1E0A81EDF0
:10258000050A81ED060A81ED0E0A81ED030A81ED4F
:102590000D0A086000BD0020486700BD0000000073
:1025A000000000460F4810B50D490160032141604D
:1025B00000214FF410228160C0E903124FF4001291
:1025C0004261017641768176C17601774177FEF7E7
:1025D00050FC002803D0BDE81040FEF7ABB910BD99
:1025E000006400407C0000200F4810B50D490160D8
:1025F0000321416000214FF410228160C0E90312E1
:102600004FF400124261017641768176C1760177FE
:102610004177FEF72EFC002803D0BDE81040FEF7FE
:1026200089B910BD00680040A4000020094808B521
:10263000016841F4001101600068002200F40010FC
:10264000009011460C20FFF7B1F9BDE808400C20BE
:10265000FFF79EB93038024030B587B01421684684
:10266000FDF7FAFD19480024016841F0800101607E
:10267000016801F080010591016841F001010160EC
:10268000016801F001010591016841F00401016058
:10269000016801F004010591016841F00201016047
:1026A00000680B4D00F00200059000220F21284623
:1026B000FFF709F90F2000900120CDE901046946D8
:1026C00028460394FFF71CF807B030BD30380240AD
:1026D0000000024010B586B0002416480094019412
:1026E0000294039404944FF08041059401605321B7
:1026F000C0E9011440F2E731C0E903148461FFF737
:102700007DFC08B1FEF716F94FF480500090694641
:102710000848FFF7BCFC08B1FEF70CF9049404A9C3
:1027200004480594FFF722FC002801D0FEF702F9C7
:1027300006B010BDCC0000200C4810B50A4901605D
:102740004FF461214160002181600C22C160C0E929
:1027500004128161C161FFF755FE002803D0BDE876
:102760001040FEF7E7B810BD004800400C01002003
:10277000B4EEE00AF1EE10FA01DDB0EE600AF1EE1F
:10278000600AB4EEE00AF1EE10FA01D2B0EE600A8F
:102790007047FEE7C0EBC0000D4900EB40000C4A5B
:1027A00051F830109FED0B0A02EBC000052902D052
:1027B000022905D006E0D0ED100AC0ED110A01E0B3
:1027C00080ED050A80ED0D0A0121017270470000BD
:1027D000AC01002000000000FEE700001FB5054B23
:1027E0000FCB8DE80F006A4640F207410248FDF723
:1027F000B1FE1FBD403200087C0000201FB5054B14
:102800000FCB8DE80F006A4640F207410248FDF702
:10281000A1FE1FBD303200087C0000201FB5054B13
:102820000FCB8DE80F006A4640F207410248FDF7E2
:1028300091FE1FBD203200087C0000201FB5054B13
:102840000FCB8DE80F006A4640F207410248FDF7C2
:1028500081FE1FBD503200087C0000207FB50022A1
:10286000012302240092019202920325039230B1C7
:10287000012807D0022808D003280BD108E0ADF8C2
:10288000002007E0ADF8003004E0ADF8004001E0C2
:10289000ADF80050082916D2DFE801F004070A0D50
:1028A00010121C1EADF808200DE0ADF808300AE04B
:1028B000ADF8084007E0ADF8085004E0042000E05F
:1028C0000520ADF808006A4640F20B410348FDF7C9
:1028D00041FE7FBD0620F4E70720F2E77C000020E0
:1028E0001FB56846FEF728F86A4640F20C410248D8
:1028F000FDF730FE1FBD00007C0000201FB56846BC
:10290000FEF71AF86A4640F20D410248FDF722FE32
:102910001FBD00007C0000207047000000B590ED56
:10292000010AD0ED000AB7EE001A70EE600AC0EDA1
:10293000020A90ED070AD0ED031A90ED082A20EE66
:10294000800A70EEE11AF5EEC00AC0ED030A02EE4D
:10295000210AF1EE10FA01D2BFEE001AD0ED051AED
:102960009FED0E2A61EE821A61EE811A61EEA01AC5
:10297000F1EEE10AF0EEC01A60EE810AB0EEE01A64
:10298000B4EEE11AF1EE10FA01D2B0EE600AD0ED29
:10299000040AFFF7EDFE80ED090A00BD3333B33FB3
:1029A0007047000030B58BB00446002322480093E6
:1029B000019302686D46521C02601A4601EB8200C8
:1029C00090ED000ABDEEC00A10EE100A25F81200C4
:1029D000521C042AF2DB4FF400700490CDE9050389
:1029E0000820CDE90730BDF80010080A8DF808006E
:1029F000BDF802008DF80910010A8DF80A108DF853
:102A00000B00BDF80400010A8DF80C108DF80D00C4
:102A1000BDF80600010A8DF80E108DF80F00204653
:102A2000FEF713F90028FAD00AAB02AA04A920463F
:102A3000FDF7A2FF0BB030BD4C0000203EB50023D7
:102A4000D9B101293ED0022924D0032914D100EEA6
:102A5000102A04466A46B8EEC00A01A80093BDEEEB
:102A6000C00A10EE101A00F0E4FA0098224BC2B22D
:102A700001A9204600F0F2FA3EBD044611466A461E
:102A800001A8009300F0D5FA00981B4BC2B244F4A1
:102A9000807015E0194D044601A82968491C296079
:102AA000114600EE101A6A46B8EEC00A85ED020A19
:102AB000009300F0BEFA0098114BC2B244F440708B
:102AC00001A9D7E700EE102ADFED0E0A0446B8EEA2
:102AD000C00A01AA6846019320EE200ABDEEC00A92
:102AE00010EE101A00F0A5FA0198034BC2B244F49C
:102AF00080606946BEE70000A4000020500000206E
:102B00007C00002000247449FEF7E8BE30B593B085
:102B100030216846FDF7A0FB14210CA8FDF79CFBB3
:102B20001D480025016841F080510160006800F0F7
:102B3000805011901948016841F48041016000689B
:102B4000022400F4804011900120009000040190C4
:102B50008001CDE9064008AA0420A82182E81300DC
:102B60000B906846FFF73EF808B172B6FEE70CA975
:102B70000F2081E831004FF4A0500F904FF48050A7
:102B8000109005210CA8FEF743FF002801D072B673
:102B9000FEE713B030BD0000403802400070004036
:102BA0000548016841F47001016003494FF000607D
:102BB000803908607047000088ED00E00148FFF7A9
:102BC000D2BA0000CC000020F0B50268254C264D9A
:102BD000264E274F274B4FF0804CA04209D060452E
:102BE00007D0A84205D0B04203D0B84201D09842E5
:102BF00004D122F0700E4A6842EA0E02A0421BD0B5
:102C0000604519D0A84217D0B04215D0B84213D0B1
:102C1000984211D0184DA8420ED0184DA8420BD0A2
:102C2000174DA84208D0174DA84205D0164DA8420E
:102C300002D0164DA84203D122F44075CA682A4337
:102C40004D6922F080022A4302608A68C2620A68E3
:102C50008262A04201D0984201D109690163012139
:102C60004161F0BD00000140000400400008004048
:102C7000000C0040000401400040014000440140BD
:102C80000048014000180040001C004000200040A7
:102C900010B5846842EA032224F47F440A432243A5
:102CA000826010BD826822F070020A4342F0070180
:102CB0008160704710B5036A046A24F0010404625D
:102CC000846924F0F00444EA021423F00A020A435F
:102CD0008461026210BD10B5036A23F01003036221
:102CE0008369046A23F4704343EA023224F0A003A8
:102CF00043EA01118261016210BD10B5806B0021B1
:102D0000C185C184FFF7F3FA10BD0168CA6822F4D7
:102D10009072CA6001684A6922F001024A6120216A
:102D200080F83A10704710B590F83A10222901D077
:102D3000022010BD8168B1F5805F11D001690029C2
:102D400001681FD0496801F07F03816A4A1C8262D2
:102D50000B70C18D491E0904090CC18518D02BE0E8
:102D60000269816A002A0268526805D0D2B20A80DC
:102D7000816A491C8162ECE7C2F308020A80816A19
:102D8000891CF7E74A68816A4B1C83620A70E0E796
:102D90000168CA6822F02002CA600168CA6822F489
:102DA0008072CA6001684A6922F001024A612021EA
:102DB00080F83A10FFF7B0FB002010BD2DE9F0417C
:102DC000044600680169E26821F440511143016141
:102DD0002169A068E26908436169114308432168D9
:102DE000CA6849F20C639A430243CA602068416989
:102DF000A26921F4407111434161E06919276425FA
:102E00003226B0F5004F354A354920684FF00008AA
:102E100006D0884201D0904236D1FEF7A3FE35E0BD
:102E2000884201D0904202D1FEF79CFE01E0FEF7FD
:102E300089FE61684A18A0FB070148EB0803FDF70B
:102E4000C1F90146B0FBF5F00201B1FBF5F06FF0FE
:102E50001803584301EB800006EBC000B0FBF5F00F
:102E600000F0F80002EB4002B1FBF5F0584301EB33
:102E7000800006EBC000B0FBF5F000F00700216811
:102E800010448860BDE8F081FEF75CFE61688B0F3E
:102E90008A00A0FB0701FDF795F90146B0FBF5F0AC
:102EA0006FF01802504301EB800006EB0010B0FBFE
:102EB000F5F000F0F002B1FBF5F002EB0012B1FB0F
:102EC000F5F06FF01803584301EB800006EB00109B
:102ED000B0FBF5F000F00F00D1E700000014014056
:102EE0000010014090F83910212901D002207047CC
:102EF0008168B1F5805F016A0BD04A1C02620268EA
:102F000009785160C18C491E0904090CC1840ED096
:102F100017E009880268C1F30801516001690029BE
:102F2000016A02D0491C0162ECE7891CFBE70168D9
:102F3000CA6822F08002CA600068C16841F040019E
:102F4000C16000207047000010B5044800F010F97F
:102F5000BDE810400148FFF7CBB900000C0100208C
:102F6000FEE700B590ED020AD0ED000A70EE600AAF
:102F7000C0ED040A90ED090A90ED081A01EE200A4E
:102F800080ED090AD0ED0B0AFFF7F2FB80ED090A8C
:102F9000D0ED070A90ED041A00EE810A80ED0A0ACE
:102FA000D0ED0B0AFFF7E4FB80ED0A0A00BDD0ED7F
:102FB000010A90ED051A90ED020A70EEC11AF4EEC6
:102FC000C01AF1EE10FA02DD30EE010A0AE090EDCF
:102FD000061A70EE811AF4EEC01AF1EE10FA04D25D
:102FE00030EE410A80ED020A7047C0ED020A90ED12
:102FF000020A70470907090E002804DB00F1E020EF
:1030000080F80014704700F00F0000F1E02080F815
:10301000141D704702E008C8121F08C1002AFAD127
:1030200070477047002001E001C1121F002AFBD148
:10303000704730B513680D0E5C1C1460C5541368DE
:103040000D0C5C1C1460C55413680D0A5C1C1460E4
:10305000C55413685C1C1460C15430BD10B58AB0EF
:103060001C46082A00D908220423CDE901030020C8
:10307000CDE9030206A8FDF7D6F808484168491CC7
:1030800041602046FDF7E1FD0028FAD008AB06AA12
:1030900069462046FDF770FC0AB010BD50000020C4
:1030A0002DED028BFEF722FCFFF730FDFFF7D4FA7F
:1030B000FFF7BCFAFFF776FAFFF796FAFFF70AFB7D
:1030C000FFF73AFBFDF76EF900F04CF81E48FEF7EB
:1030D000CDFFC820FEF702FB00241C4E9FED1C8A8A
:1030E0001C4F022504EB440006EBC0000572C4EB44
:1030F000C40000EB400007EBC00080ED108A2046C2
:10310000FFF748FB641C082CECDBFDF779FB124C45
:1031100000220F212046FEF7D6FB1048FDF762FB88
:1031200025460F4C03212068401C20606068401C2D
:1031300060602846FEF7C0FBFDF7B4F9FDF7E2F842
:103140003220FEF7CBFAEDE7CC000020FC06002091
:1031500000000000AC0100200000024064000020DC
:1031600000000020014800F025B800000C010020FC
:1031700008B501680A68D20619D5CA68D20616D5FC
:103180000A6849680091416B09680A6822F00102E7
:103190000A600749884204D1416B09684A683822AD
:1031A0004A60406B0068016841F00101016008BDA0
:1031B0000C01002038B5104988421CD10868002550
:1031C000016841680091C16841F01001C1600A4C7A
:1031D0000A4A94F83A0020280DD13823A262A38528
:1031E000E5632168606B091DFEF754FA20684169A8
:1031F00041F04001416138BD0C010020BC070020B6
:103200000006101600061016000000000000000066
:10321000010203040607080900000000010203047C
:10322000040000000000000000000000000000009A
:103230000700000000000000000000000000000087
:103240000600000000000000000000000000000078
:103250000800000000000000000000000000000066
:10326000010000000000000000000000000000005D
:1032700090320008000000206400000014300008B4
:10328000F4320008640000208C0B00002430000899
:10329000000000000000000000000000000000002E
:1032A000000000000000000000000000000000001E
:1032B000000000000000000000000000000000000E
:1032C0000100000010000000000000000024F400D5
:1032D00000000000000000000000000000000000EE
:1032E00000000000000000000000000000000000DE
:0432F00000000000DA
:040000050800018965
:00000001FF
